:020000040800F2
:100000000000022021120008911000089910000839
:10001000A1100008A9100008B1100008000000009D
:10002000000000000000000000000000B9100008FF
:10003000C710000800000000D5100008E3100008F9
:100040007112000871120008711200087112000884
:100050007112000871120008711200087112000874
:100060007112000871120008711200087112000864
:100070007112000871120008711200087112000854
:100080007112000871120008711200087112000844
:100090007112000871120008711200087112000834
:1000A0007112000871120008711200087112000824
:1000B0007112000871120008711200087112000814
:1000C0007112000871120008711200087112000804
:1000D00071120008711200087112000871120008F4
:1000E00071120008711200087112000871120008E4
:1000F00071120008711200087112000871120008D4
:1001000071120008711200087112000871120008C3
:1001100071120008711200087112000871120008B3
:1001200071120008711200087112000871120008A3
:100130007112000871120008711200087112000893
:100140007112000871120008711200087112000883
:100150007112000871120008711200087112000873
:100160007112000871120008711200087112000863
:1001700071120008711200087112000800000000DE
:08018000711200087112000861
:1001900010B5054C237833B9044B13B10448AFF3C1
:1001A00000800123237010BD6800002000000000C3
:1001B000E040000808B5034B1BB103490348AFF307
:1001C000008008BD000000006C000020E040000836
:1001D00001F0FF01102A2BDB10F0070F08D010F8F8
:1001E000013B013A8B422DD010F0070F42B3F6D1FC
:1001F000F0B441EA012141EA014122F007047FF015
:1002000000070023F0E80256083C85EA010586EA6B
:10021000010685FA47F5A3FA87F586FA47F6A5FAA7
:1002200087F68EB9EED1F0BC01F0FF0102F00702B3
:1002300032B110F8013B013A83EA010313B1F8D15E
:100240000020704701387047002D06BF354603383F
:10025000073815F0010F07D1013015F4807F02BF78
:10026000013015F4C03F0130F0BC0138704700BFC9
:1002700053B94AB9002908BF00281CBF4FF0FF310D
:100280004FF0FF3000F088B9ADF1080C6DE904CEF5
:1002900000F006F8DDF804E0DDE9022304B0704761
:1002A0002DE9F047089D8E4604468846002B4AD12A
:1002B0008A42174662D9B2FA82F64EB1C6F12003DD
:1002C00001FA06F820FA03F3B74043EA0808B440FD
:1002D0004FEA174E1FFA87FCB8FBFEF1230C0EFB0A
:1002E000118843EA084301FB0CF29A4209D9FB1832
:1002F00001F1FF3080F0EA809A4240F2E780023953
:100300003B449A1AA3B2B2FBFEF00EFB102243EA62
:10031000024300FB0CFC9C4509D9FB1800F1FF329D
:1003200080F0D6809C4540F2D3803B44023840EABE
:100330000140A3EB0C0300211DB1F3400022C5E9ED
:100340000032BDE8F0878B4205D90DB1C5E9000147
:1003500000210846F5E7B3FA83F1002946D1734539
:1003600002D3824200F20581841A6EEB030201205F
:100370009046002DE5D0C5E90048E2E7002A00F0EC
:100380009080B2FA82F6002E40F0A4808A1A030C04
:100390004FEA174E80B2BCB20121B2FBFEFC0EFB4D
:1003A0001C2243EA024304FB0CF29A4207D9FB18D1
:1003B0000CF1FF3802D29A4200F2E080C4469B1A48
:1003C000B3FBFEF20EFB123340EA034302FB04F4DC
:1003D0009C4207D9FB1802F1FF3002D29C4200F286
:1003E000CA8002461B1B42EA0C40A5E7C1F1200669
:1003F0008B4022FA06F71F430EFA01F420FA06F3A7
:100400002EFA06FE4FEA1749234300FA01F81FFAB5
:1004100087FCBEFBF9F01C0C09FB10EE44EA0E440D
:1004200000FB0CFEA64502FA01F209D93C1900F1C5
:10043000FF3A80F09C80A64540F2998002383C4407
:10044000A4EB0E041FFA83FEB4FBF9F309FB13447B
:100450004EEA044403FB0CFCA44508D93C1903F103
:10046000FF3E80F08280A4457FD9023B3C4443EAB2
:100470000040A4EB0C04A0FB02EC64457346E1468B
:1004800062D35FD05DB1B8EB030264EB090404FAF8
:1004900006F622FA01F31E43CC40C5E900640021B0
:1004A0004FE7B1FBF2FC010C41EA0E4180B240EA99
:1004B00001423B4638463C46B846BE462026B1FB84
:1004C000F7F1A2EB080241EA0C4166E7014618E7A2
:1004D00010462CE7C6F120022EFA02F3B740B140D5
:1004E00020FA02F24FEA174E0A43B3FBFEF8BCB201
:1004F0000EFB1833110C41EA034108FB04F9B0402C
:1005000089454FEA104380B23ED9791808F1FF3C83
:1005100001D289451FD8A1EB0901B1FBFEF909FB06
:1005200004F80EFB191192B242EA0142424529D267
:10053000BA1809F1FF31C4D24245C2D2A9F1020171
:100540003A44BEE7F0459DD2BEEB02036CEB070CCC
:100550000138E14696E7A7EB09094944A8F1020CE6
:10056000B1FBFEF909FB04F8DBE773467FE7504671
:1005700066E70846FDE63B44023A33E7ACF1020C7D
:100580003B441CE749469CE7A1EB0901C446B1FB8B
:10059000FEF909FB04F8C4E7704700BF80B500AF5F
:1005A00000222021074801F07DF90A2000F0D4FE46
:1005B00001222021034801F075F90A2000F0CCFE49
:1005C00000BF80BD0000024080B584B002AF7860FB
:1005D0000B46FB701346BB70FB7899B2BA1C6423C0
:1005E00000930123786801F0BBFA034618460837E8
:1005F000BD4680BD80B586B002AFF8607A601A460D
:100600000B46FB7213463B81FB7A99B23B894FF450
:10061000C87200927A68F86801F0A2FA0346184698
:100620001037BD4680BD80B582B000AF78600B4604
:10063000FB701346BB7097F9023003F00F035BB2F7
:1006400063F04F035BB2DAB2FB7819467868FFF7C4
:10065000BBFF00BF0837BD4680BD80B582B000AF8C
:1006600078600B46FB701346BB70BB781B09DBB28E
:100670005BB243F010035BB2DAB2FB7819467868DC
:10068000FFF7A2FFBB7803F00F03DAB2FB7819463D
:100690007868FFF799FF00BF0837BD4680BD80B579
:1006A00082B000AF78600B467B807B88DBB2B022E3
:1006B00019467868FFF788FF7B88DBB2102219465D
:1006C0007868FFF781FF7B88DBB2002219467868E3
:1006D000FFF77AFF00BF0837BD4680BD80B5C4B0C4
:1006E00000AF07F58873A3F5867318607C23A7F81D
:1006F0000C317E23A7F80A31FFF750FF642000F089
:100700002BFEB7F80C31D9B207F58873A3F58673C1
:10071000E2221868FFF758FF0A2000F01DFEB7F824
:100720000C31D9B207F58873A3F58673AE22186829
:10073000FFF74AFFB7F80C31D9B207F58873A3F574
:100740008673A6221868FFF73FFFB7F80C31D9B2BD
:1007500007F58873A3F5867340221868FFF734FF06
:10076000B7F80C31D9B207F58873A3F58673A022C8
:100770001868FFF729FFB7F80C31D9B207F588736D
:10078000A3F58673A6221868FFF71EFFB7F80C3191
:10079000D9B207F58873A3F58673EB221868FFF7C3
:1007A00013FFB7F80C31D9B207F58873A3F5867338
:1007B000C2221868FFF708FFB7F80C31D9B207F565
:1007C0008873A3F5867381221868FFF7FDFEB7F8DA
:1007D0000C31D9B207F58873A3F58673992218688E
:1007E000FFF7F2FEB7F80C2107F58873A3F58673BF
:1007F00011461868FFF753FF07F188038022FF2195
:10080000184602F001FD07F1080380220021184676
:1008100002F0FAFC002387F80F3154E097F80F310B
:1008200003F00103DBB2002B24D1B7F80C31D9B2AD
:1008300097F80F2107F58873A3F586731868FFF7FB
:10084000F2FEB7F80C31D9B207F58873A3F58673B9
:1008500000221868FFF701FFB7F80A31D9B207F193
:10086000880207F58873A3F5867080230068FFF778
:10087000C1FE23E0B7F80C31D9B297F80F2107F584
:100880008873A3F586731868FFF7CDFEB7F80C31AF
:10089000D9B207F58873A3F5867300221868FFF7AD
:1008A000DCFEB7F80A31D9B207F1080207F5887300
:1008B000A3F5867080230068FFF79CFE97F80F3140
:1008C000013387F80F3197F80F31032BA6D9B7F80A
:1008D0000C31D9B207F58873A3F58673AF22186877
:1008E000FFF772FE642000F037FD00BF07F5887740
:1008F000BD4680BD80B5A4B000AF78607C23A7F86A
:100900008C307E23A7F88A3007F10803802200216B
:10091000184602F079FC002387F88F301EE0B7F804
:100920008C30DBB297F88F2019467868FFF77BFE92
:10093000B7F88C30DBB2002219467868FFF78DFEDD
:10094000B7F88A30D9B207F1080280237868FFF738
:1009500051FE97F88F30013387F88F3097F88F303A
:10096000032BDCD900BF00BF9037BD4680BD00001F
:1009700080B485B000AF0346FB710023FB6015E037
:100980000F49FA6813461B0113445B000B441B78A4
:10099000FA799A4207D1FA6813461B0113445B00A7
:1009A000074A134406E0FB680133FB60FB680F2B2A
:1009B000E6D9044B18461437BD465DF8047B7047F2
:1009C000BC410008BA43000880B588B000AFF860A9
:1009D0007B600B46FB721346BB727C23FB837E233A
:1009E000BB833FE07B685A1C7A601B781846FFF790
:1009F000BFFFB861BB695B78FB75FB8BDBB2FA7A32
:100A00001946F868FFF70FFEFB8BDBB2BA7A19467E
:100A1000F868FFF722FEBB8BD9B2BB699A1CFB7D3D
:100A20009BB2F868FFF7E6FDFB8BD9B2FB7A013386
:100A3000DBB21A46F868FFF7F6FDFB8BDBB2BA7A39
:100A40001946F868FFF709FEBB8BD9B2BB6903F101
:100A50001202FB7D9BB2F868FFF7CCFDBA7AFB7DF2
:100A60001344BB727B681B78002BBBD100BF00BF57
:100A70002037BD4680BD80B5A4B000AF78607C2330
:100A8000A7F88C307E23A7F88A3007F1080380226C
:100A90000021184602F0B8FB002387F88F301EE0D3
:100AA000B7F88C30DBB297F88F2019467868FFF7DB
:100AB000BAFDB7F88C30DBB2002219467868FFF730
:100AC000CCFDB7F88A30D9B207F1080280237868E4
:100AD000FFF790FD97F88F30013387F88F3097F844
:100AE0008F30032BDCD900BF00BF9037BD4680BDDF
:100AF000F0B58FB006AFF860084611461A460346B7
:100B0000FB720B46BB7213467B727B7A2A4AA2FBAE
:100B10000323DB08DBB29C467A7A274BA3FB021344
:100B2000D9080B469B000B445B00D31ADBB21C4672
:100B300097F83830204AA2FB0323DB08DBB21D46BE
:100B400097F838201C4BA3FB0213D9080B469B00D7
:100B50000B445B00D31ADBB21E4697F83C30164AB2
:100B6000A2FB0323DB08DBB27B6097F83C20124B2F
:100B7000A3FB0213D9080B469B000B445B00D31A5E
:100B8000DBB207F1100004937B6803930296019592
:100B900000946346094A102102F028FAF868FFF72A
:100BA0006AFF07F11003BA7AF97AF868FFF70CFFC9
:100BB00000BF2437BD46F0BDCDCCCCCC1C410008D5
:100BC00080B483B000AF78604FF06043D3F8803ECC
:100BD00003F00103002B13D04FF06043D3F8003E25
:100BE00003F00103002B0BD000E000BF4FF0604387
:100BF0001B68002BF9D04FF060437A68D2B21A70AC
:100C00007B6818460C37BD465DF8047B704780B59D
:100C100086B000AFF860B9607A6000237B6109E0BC
:100C2000BB685A1CBA601B781846FFF7C9FF7B697E
:100C300001337B617A697B689A42F1DB7B681846F5
:100C40001837BD4680BD000080B588B002AF00F007
:100C500011FB00F09BF800F031F900F001F90122DE
:100C60001021424800F01EFE642000F075FB404851
:100C700002F0B4F90123FB751BE0FB7D9BB25B0026
:100C800099B2142302223B4801F068F803463B71F5
:100C90003B79002B02D02E2002F042F93B79002B49
:100CA00004D1FB7D1946344802F028F9FB7D01335D
:100CB000FB7597F91730002BDFDA304802F08EF918
:100CC0002C48FFF717FE2B48FFF708FD2948FFF7D0
:100CD00011FE00F035FB38610023FB6000F030FBB3
:100CE000B860BA683B69D31AB3F57A7FF6D33B692B
:100CF00003F57A733B61FB680133FB60FB68204AB4
:100D0000A2FB0323D90A1F4BA3FB01231A09134695
:100D10005B001344DB00CA1A1346FB71FB681A4AD6
:100D2000A2FB03235909184BA3FB01235A091346BD
:100D30001B019B1A9B00CA1A1346BB71F968124B20
:100D4000A3FB01235A0913461B019B1A9B00CA1AD5
:100D500013467B71FA797B790193BB790093134633
:100D6000002201210348FFF7C3FEB7E7000C024051
:100D70007C41000884000020904100089841000850
:100D8000C5B3A291ABAAAAAA8988888880B594B075
:100D900000AF07F1200330220021184602F034FA98
:100DA00007F10C0300221A605A609A60DA601A6137
:100DB0000023BB60284B1B6C274A43F0805313640D
:100DC000254B1B6C03F08053BB60BB6800237B602A
:100DD000224B1B68214A43F4804313601F4B1B685E
:100DE00003F480437B607B6801233B624FF48033D4
:100DF0007B620223BB634FF48003FB6304233B64E9
:100E0000A8237B640223BB640423FB6407F1200353
:100E1000184601F02DFB0346002B01D000F0C2F86C
:100E20000F23FB6002233B6100237B614FF4A0533F
:100E3000BB614FF48053FB6107F10C030521184699
:100E400001F08EFD0346002B01D000F0ABF800BF8F
:100E50005037BD4680BD00BF0038024000700040E2
:100E600080B500AF124B134A1A60114B124A5A60F8
:100E70000F4B00229A600E4B0022DA600C4B4FF4AD
:100E800080421A610A4B00225A61094B00229A6182
:100E9000074B0022DA61064B00221A62044800F078
:100EA0001BFD0346002B01D000F07CF800BF80BD85
:100EB0008400002000540040A086010080B58AB064
:100EC00000AF07F1140300221A605A609A60DA60DA
:100ED0001A6100233B61304B1B6B2F4A43F08003A8
:100EE00013632D4B1B6B03F080033B613B690023B5
:100EF000FB60294B1B6B284A43F001031363264B0D
:100F00001B6B03F00103FB60FB680023BB60224BFB
:100F10001B6B214A43F0080313631F4B1B6B03F049
:100F20000803BB60BB6800237B601B4B1B6B1A4A2A
:100F300043F002031363184B1B6B03F002037B6047
:100F40007B6800223021154800F0ACFC0022102103
:100F5000134800F0A7FC30237B610123BB61012310
:100F6000FB6100233B6207F1140319460B4800F0B4
:100F7000FDFA10237B610123BB610023FB61002389
:100F80003B6207F114031946054800F0EFFA00BF71
:100F90002837BD4680BD00BF003802400000024037
:100FA000000C024080B400AF72B600BF00BFFDE786
:100FB00080B483B000AF00237B60104B5B6C0F4AA2
:100FC00043F4804353640D4B5B6C03F480437B60BC
:100FD0007B6800233B60094B1B6C084A43F080533D
:100FE0001364064B1B6C03F080533B603B6800BFEF
:100FF0000C37BD465DF8047B704700BF00380240E7
:1010000080B58AB000AF786007F1140300221A603F
:101010005A609A60DA601A617B681B68194A9342C9
:101020002CD100233B61184B1B6B174A43F0020382
:101030001363154B1B6B03F002033B613B694FF4D9
:1010400010737B611223BB610123FB6100233B62B0
:1010500004237B6207F1140319460C4800F086FA5A
:101060000023FB60084B1B6C074A43F40013136416
:10107000054B1B6C03F40013FB60FB6800BF2837B3
:10108000BD4680BD005400400038024000040240CC
:1010900080B400AF00BFFDE780B400AF00BFFDE744
:1010A00080B400AF00BFFDE780B400AF00BFFDE734
:1010B00080B400AF00BFFDE780B400AF00BFBD4605
:1010C0005DF8047B704780B400AF00BFBD465DF89B
:1010D000047B704780B400AF00BFBD465DF8047B61
:1010E000704780B500AF00F017F900BF80BD80B534
:1010F00086B000AFF860B9607A6000237B610AE0D7
:10110000AFF300800146BB685A1CBA60CAB21A70BD
:101110007B6901337B617A697B689A42F0DB7B688B
:1011200018461837BD4680BD80B483B000AF7860E4
:101130004FF0FF3318460C37BD465DF8047B70470F
:1011400080B483B000AF786039603B684FF40052E0
:101150005A60002318460C37BD465DF8047B704783
:1011600080B483B000AF7860012318460C37BD46C9
:101170005DF8047B704780B485B000AFF860B9605B
:101180007A60002318461437BD465DF8047B70472B
:1011900080B586B000AF7860144A154BD31A7B61D6
:1011A0007B693B61134B1B68002B02D1114B124A28
:1011B0001A60104B1A687B6813443A699A4207D246
:1011C00002F070F803460C221A604FF0FF3309E07A
:1011D000084B1B68FB60074B1A687B681344054A81
:1011E0001360FB6818461837BD4680BD000002201A
:1011F00000040000D80000203002002080B400AFBE
:10120000064BD3F88830054A43F47003C2F888309F
:1012100000BFBD465DF8047B704700BF00ED00E0F5
:10122000DFF834D0FFF7EAFF0C480D490D4A0023E0
:1012300002E0D458C4500433C4188C42F9D30A4A8B
:101240000A4C002301E013600432A242FBD302F0F7
:101250002FF8FFF7F9FC7047000002200000002083
:101260006800002038440008680000202C0200209C
:10127000FEE7000080B500AF0E4B1B680D4A43F43B
:10128000007313600B4B1B680A4A43F480631360BE
:10129000084B1B68074A43F480731360032000F077
:1012A00031F90F2000F008F8FFF782FE00231846FE
:1012B00080BD00BF003C024080B582B000AF7860C6
:1012C000124B1A68124B1B7819464FF47A73B3FB12
:1012D000F1F3B2FBF3F3184600F03BF90346002BA1
:1012E00001D001230EE07B680F2B0AD80022796819
:1012F0004FF0FF3000F011F9064A7B6813600023BD
:1013000000E0012318460837BD4680BD00000020DC
:10131000080000200400002080B400AF064B1B78BA
:101320001A46064B1B681344044A136000BFBD46AF
:101330005DF8047B704700BF08000020DC0000203F
:1013400080B400AF034B1B681846BD465DF8047BB4
:10135000704700BFDC00002080B584B000AF78602B
:10136000FFF7EEFFB8607B68FB60FB68B3F1FF3FFF
:1013700005D00A4B1B781A46FB681344FB6000BF7C
:10138000FFF7DEFF0246BB68D31AFA689A42F7D825
:1013900000BF00BF1037BD4680BD00BF0800002061
:1013A00080B485B000AF78607B6803F00703FB6012
:1013B0000C4BDB68BB60BA684FF6FF031340BB60A1
:1013C000FB681A02BB68134343F0BF6343F4003366
:1013D000BB60044ABB68D36000BF1437BD465DF8EC
:1013E000047B704700ED00E080B400AF044BDB6885
:1013F0001B0A03F007031846BD465DF8047B7047DF
:1014000000ED00E080B483B000AF03463960FB71AB
:1014100097F90730002B0ADB3B68DAB20C4997F9E1
:1014200007301201D2B20B4483F800230AE03B6874
:10143000DAB20849FB7903F00F03043B1201D2B280
:101440000B441A7600BF0C37BD465DF8047B70472D
:1014500000E100E000ED00E080B489B000AFF8608A
:10146000B9607A60FB6803F00703FB61FB69C3F1B5
:101470000703042B28BF0423BB61FB690433062B3D
:1014800002D9FB69033B00E000237B614FF0FF3290
:10149000BB6902FA03F3DA43BB681A407B699A40DE
:1014A0004FF0FF317B6901FA03F3D9437B680B40AE
:1014B000134318462437BD465DF8047B704700008F
:1014C00080B582B000AF78607B68013BB3F1807F6C
:1014D00001D301230FE00A4A7B68013B53600F21CF
:1014E0004FF0FF30FFF78EFF054B00229A60044B50
:1014F00007221A60002318460837BD4680BD00BF8A
:1015000010E000E080B582B000AF78607868FFF747
:1015100047FF00BF0837BD4680BD80B586B000AF2D
:101520000346B9607A60FB7300237B61FFF75CFFC1
:1015300078617A68B9687869FFF78EFF024697F993
:101540000F3011461846FFF75DFF00BF1837BD4644
:1015500080BD80B582B000AF78607868FFF7B0FFDB
:10156000034618460837BD4680BD000080B489B0E8
:1015700000AF7860396000237B6100233B6100236A
:10158000BB610023FB616BE10122FB6902FA03F3FB
:101590007B613B681B687A6913403B613A697B69F0
:1015A0009A4240F05A813B685B6803F00303012BC9
:1015B00005D03B685B6803F00303022B30D17B68E6
:1015C0009B68BB61FB695B00032202FA03F3DB4308
:1015D000BA691340BB613B68DA68FB695B0002FAD9
:1015E00003F3BA691343BB617B68BA699A607B688D
:1015F0005B68BB610122FB6902FA03F3DB43BA6952
:101600001340BB613B685B681B0903F00102FB6987
:1016100002FA03F3BA691343BB617B68BA695A6083
:101620003B685B6803F00303032B17D07B68DB6820
:10163000BB61FB695B00032202FA03F3DB43BA6977
:101640001340BB613B689A68FB695B0002FA03F3D5
:10165000BA691343BB617B68BA69DA603B685B684F
:1016600003F00303022B23D1FB69DA087B680832FD
:1016700053F82230BB61FB6903F007039B000F2284
:1016800002FA03F3DB43BA691340BB613B681A6992
:10169000FB6903F007039B0002FA03F3BA691343E3
:1016A000BB61FB69DA087B680832B96943F822102C
:1016B0007B681B68BB61FB695B00032202FA03F3D2
:1016C000DB43BA691340BB613B685B6803F003020C
:1016D000FB695B0002FA03F3BA691343BB617B68E1
:1016E000BA691A603B685B6803F44033002B00F072
:1016F000B4800023FB60604B5B6C5F4A43F4804323
:1017000053645D4B5B6C03F48043FB60FB685B4A96
:10171000FB699B08023352F82330BB61FB6903F07D
:1017200003039B000F2202FA03F3DB43BA69134061
:10173000BB617B68524A93422BD07B68514A9342EB
:1017400025D07B68504A93421FD07B684F4A934212
:1017500019D07B684E4A934213D07B684D4A93421E
:101760000DD07B684C4A934207D07B684B4A93422A
:1017700001D107230EE008230CE006230AE005232D
:1017800008E0042306E0032304E0022302E001232F
:1017900000E00023FA6902F0030292009340BA6964
:1017A0001343BB613549FB699B080233BA6941F8B1
:1017B00023203B4B9B68BB613B69DB43BA69134009
:1017C000BB613B685B6803F48013002B03D0BA69EC
:1017D0003B691343BB61324ABB699360304BDB68A2
:1017E000BB613B69DB43BA691340BB613B685B6823
:1017F00003F40013002B03D0BA693B691343BB61A8
:10180000274ABB69D360264B5B68BB613B69DB43FE
:10181000BA691340BB613B685B6803F40033002B7B
:1018200003D0BA693B691343BB611D4ABB6953606E
:101830001B4B1B68BB613B69DB43BA691340BB614F
:101840003B685B6803F48033002B03D0BA693B69C3
:101850001343BB61124ABB691360FB690133FB612F
:10186000FB690F2B7FF690AE00BF00BF2437BD464B
:101870005DF8047B704700BF00380240003801402B
:10188000000002400004024000080240000C024038
:10189000001002400014024000180240001C0240E8
:1018A000003C014080B483B000AF78600B467B8081
:1018B00013467B707B78002B03D07A887B689A6113
:1018C00003E07B881A047B689A6100BF0C37BD4631
:1018D0005DF8047B7047000080B584B000AF78608D
:1018E0007B68002B01D101232BE17B6893F83D300D
:1018F000DBB2002B06D17B68002283F83C2078689D
:10190000FFF77EFB7B68242283F83D207B681B6801
:101910001A687B681B6822F001021A607B681B68EA
:101920001A687B681B6842F400421A607B681B6877
:101930001A687B681B6822F400421A6001F008FAFA
:10194000F8607B685B68814A934207D8FB68804AED
:10195000934294BF01230023DBB206E0FB687D4A7B
:10196000934294BF01230023DBB2002B01D001235B
:10197000E7E0FB68784AA2FB03239B0CBB607B6813
:101980001B685B6823F03F017B681B68BA680A43E9
:101990005A607B681B681B6A23F03F017B685B68A9
:1019A0006A4A934202D8BB68013309E0BB684FF42E
:1019B000967202FB03F3694AA2FB03239B090133DE
:1019C0007A6812680B4313627B681B68DB6923F437
:1019D0004F4222F0FF027B685B685C498B4219D85A
:1019E000FB68591E7B685B685B00B1FBF3F3591C15
:1019F00040F6FC730B40002B0AD0FB68591E7B6835
:101A00005B685B00B1FBF3F30133C3F30B0351E0FD
:101A100004234FE07B689B68002B11D1FB68581EA4
:101A20007B6859680B465B000B44B0FBF3F3013352
:101A3000C3F30B03002B0CBF01230023DBB212E026
:101A4000FB68581E7B6859680B469B000B44990045
:101A50000B44B0FBF3F30133C3F30B03002B0CBFB8
:101A600001230023DBB2002B01D0012322E07B689D
:101A70009B68002B0ED1FB68581E7B6859680B468B
:101A80005B000B44B0FBF3F30133C3F30B0343F4EC
:101A900000430FE0FB68581E7B6859680B469B00AB
:101AA0000B4499000B44B0FBF3F30133C3F30B0376
:101AB00043F44043796809681343CB617B681B6832
:101AC0001B6823F0C0017B68DA697B681B6A1A43D4
:101AD0007B681B680A431A607B681B689B6823F459
:101AE000034323F0FF037A6811697A68D2681143CF
:101AF0007A6812680B4393607B681B68DB6823F08D
:101B0000FF017B685A697B689B691A437B681B6885
:101B10000A43DA607B681B681A687B681B6842F0BE
:101B200001021A607B6800221A647B68202283F815
:101B30003D207B6800221A637B68002283F83E20E8
:101B4000002318461037BD4680BD00BFA0860100A7
:101B50007F841E00FF083D0083DE1B43D34D6210CF
:101B600080B588B002AFF8607A601A460B467B8178
:101B700013463B81FFF7E4FB7861FB6893F83D3047
:101B8000DBB2202B40F0E0807B6900931923012217
:101B90007049F86800F092FA0346002B01D0022346
:101BA000D3E0FB6893F83C30012B01D10223CCE059
:101BB000FB68012283F83C20FB681B681B6803F06C
:101BC0000103012B07D0FB681B681A68FB681B68C0
:101BD00042F001021A60FB681B681A68FB681B6808
:101BE00022F400621A60FB68212283F83D20FB6822
:101BF000102283F83E20FB6800221A64FB687A6892
:101C00005A62FB683A895A85FB685B8D9AB2FB6819
:101C10001A85FB68504ADA6279897B693A6AF86802
:101C200000F0CAF90346002B01D001238DE0002308
:101C30003B61FB681B685B693B61FB681B689B69D8
:101C40003B613B6966E07A69396AF86800F050FBED
:101C50000346002B0DD0FB681B6C042B07D1FB68DF
:101C60001B681A68FB681B6842F400721A60012343
:101C70006BE0FB685B6A1A78FB681B681A61FB689B
:101C80005B6A5A1CFB685A62FB685B8D9BB2013B26
:101C90009AB2FB685A85FB681B8D013B9AB2FB68C0
:101CA0001A85FB681B685B6903F00403042B1BD1D6
:101CB000FB681B8D002B17D0FB685B6A1A78FB68EA
:101CC0001B681A61FB685B6A5A1CFB685A62FB68F6
:101CD0005B8D9BB2013B9AB2FB685A85FB681B8DFA
:101CE000013B9AB2FB681A857A69396AF86800F094
:101CF00047FB0346002B0DD0FB681B6C042B07D160
:101D0000FB681B681A68FB681B6842F400721A6063
:101D100001231AE0FB681B8D002B94D1FB681B6824
:101D20001A68FB681B6842F400721A60FB68202284
:101D300083F83D20FB68002283F83E20FB680022E8
:101D400083F83C20002300E0022318461837BD46E4
:101D500080BD00BF020010000000FFFF80B58AB008
:101D600002AFF8607A603B600B467B81FFF7E8FAD0
:101D7000F8610023BB61FB6893F83D30DBB2202B98
:101D800040F01181FB690093192301228849F8680A
:101D900000F094F90346002B01D0022304E1FB6814
:101DA00093F83C30012B01D10223FDE0FB680122B6
:101DB00083F83C20FB681B681B6803F00103012BC0
:101DC00007D0FB681B681A68FB681B6842F00102B9
:101DD0001A60FB681B681A68FB681B6822F40062C3
:101DE0001A60FB68242283F83D20FB6800221A64F5
:101DF000FB68704ADA62FB681B681A68FB681B683C
:101E000042F480721A60FB6900933B6800224FF035
:101E10000111F86800F052F90346002B0DD0FB6861
:101E20001B681B6803F48073B3F5807F03D1FB68E4
:101E30004FF400721A640323B6E07B89DBB21A46C2
:101E4000FB681B6802F0FE021A61FFF779FAF8617D
:101E5000FB681B685B6903F00203022B0CBF0123C4
:101E60000023DBB2FB75FB681B685B6903F48063CE
:101E7000B3F5806F0CBF01230023DBB2BB7525E0F7
:101E8000FFF75EFA0246FB69D31A3A689A4202D318
:101E90003B68002B03D1FB68A02283F83D20FB6840
:101EA0001B685B6903F00203022B0CBF01230023B4
:101EB000DBB2FB75FB681B685B6903F48063B3F5F9
:101EC000806F0CBF01230023DBB2BB75FB6893F866
:101ED0003D30DBB2A02B05D0FB7D002B02D1BB7DBA
:101EE000002BCDD0FB68202283F83D20FB681B68C7
:101EF0005B6903F00203022B29D1FB681B681A6897
:101F0000FB681B6842F400721A6000233B61FB68A7
:101F10001B685B693B61FB681B689B693B613B69B4
:101F2000FB690093192301222149F86800F0C6F8E3
:101F30000346002B01D0012336E0FB68202283F802
:101F40003D20FB68002283F83C2000232CE0FB6846
:101F50001B681A68FB681B6842F400721A60FB6811
:101F60001B686FF480625A61FB6900931923012298
:101F70000F49F86800F0A2F80346002B01D00123B6
:101F800012E0BB690133BB61BA697B689A42FFF416
:101F900032AFFB68202283F83D20FB68002283F8E3
:101FA0003C20012300E0022318462037BD4680BDB7
:101FB000020010000000FFFF80B588B002AFF8609B
:101FC0007A603B600B467B81FB68DB6A7B617B69E7
:101FD000082B06D07B69012B03D07B6913F5803F6A
:101FE00008D1FB681B681A68FB681B6842F48072A2
:101FF0001A600BE0FB681B6B122B07D1FB681B6898
:102000001A68FB681B6842F480721A603B68009390
:102010007B6800224FF00111F86800F04FF803468A
:10202000002B0DD0FB681B681B6803F48073B3F5AD
:10203000807F03D1FB684FF400721A64032335E0FC
:10204000FB681B69B3F5804F08D17B89DBB21A4668
:10205000FB681B6802F0FE021A611BE07B89DB1142
:10206000DBB203F00603DBB263F00F03DAB2FB6806
:102070001B681A613B687A680E49F86800F098F8A6
:102080000346002B01D0012310E07B89DAB2FB6804
:102090001B681A613B687A680749F86800F088F89D
:1020A0000346002B01D0012300E000231846183717
:1020B000BD4680BD080001000200010080B584B06B
:1020C00000AFF860B9603B601346FB7148E03B68C5
:1020D000B3F1FF3F44D0FFF733F90246BB69D31A8F
:1020E0003A689A4202D33B68002B39D1BB681B0C7B
:1020F000DBB2012B0DD1FB681B685B69DA43BB685F
:1021000013409BB2002B0CBF01230023DBB21A4605
:102110000CE0FB681B689B69DA43BB6813409BB209
:10212000002B0CBF01230023DBB21A46FB799A4235
:1021300016D1FB6800221A63FB68202283F83D2039
:10214000FB68002283F83E20FB681B6C43F02002F2
:10215000FB681A64FB68002283F83C20012323E01B
:10216000BB681B0CDBB2012B0DD1FB681B685B69E4
:10217000DA43BB6813409BB2002B0CBF0123002342
:10218000DBB21A460CE0FB681B689B69DA43BB684C
:1021900013409BB2002B0CBF01230023DBB21A4675
:1021A000FB799A4293D0002318461037BD4680BD74
:1021B00080B584B000AFF860B9607A603B6071E0D0
:1021C000FB681B685B6903F48063B3F5806F23D100
:1021D000FB681B681A68FB681B6842F400721A608F
:1021E000FB681B686FF480625A61FB6800221A6307
:1021F000FB68202283F83D20FB68002283F83E2004
:10220000FB681B6C43F00402FB681A64FB68002245
:1022100083F83C20012367E07B68B3F1FF3F41D0A6
:10222000FFF78EF802463B68D31A7A689A4202D3C7
:102230007B68002B36D1BB681B0CDBB2012B0CD1A9
:10224000FB681B685B69DA43BB6813409BB2002BD9
:1022500014BF01230023DBB20BE0FB681B689B6902
:10226000DA43BB6813409BB2002B14BF0123002349
:10227000DBB2002B16D0FB6800221A63FB68202219
:1022800083F83D20FB68002283F83E20FB681B6C2E
:1022900043F02002FB681A64FB68002283F83C20AC
:1022A000012321E0BB681B0CDBB2012B0CD1FB68C6
:1022B0001B685B69DA43BB6813409BB2002B14BFF9
:1022C00001230023DBB20BE0FB681B689B69DA4348
:1022D000BB6813409BB2002B14BF01230023DBB269
:1022E000002B7FF46DAF002318461037BD4680BD2C
:1022F00080B584B000AFF860B9607A6034E0F86807
:1023000000F086F80346002B01D0012334E0BB68BF
:10231000B3F1FF3F28D0FFF713F802467B68D31ACA
:10232000BA689A4202D3BB68002B1DD1FB681B68B8
:102330005B6903F08003802B16D0FB6800221A63D0
:10234000FB68202283F83D20FB68002283F83E20B2
:10235000FB681B6C43F02002FB681A64FB680022D8
:1023600083F83C20012307E0FB681B685B6903F0EE
:102370008003802BC3D1002318461037BD4680BD93
:1023800080B584B000AFF860B9607A6034E0F86876
:1023900000F03EF80346002B01D0012334E0BB6877
:1023A000B3F1FF3F28D0FEF7CBFF02467B68D31A7C
:1023B000BA689A4202D3BB68002B1DD1FB681B6828
:1023C0005B6903F00403042B16D0FB6800221A6338
:1023D000FB68202283F83D20FB68002283F83E2022
:1023E000FB681B6C43F02002FB681A64FB68002248
:1023F00083F83C20012307E0FB681B685B6903F05E
:102400000403042BC3D1002318461037BD4680BDFA
:1024100080B483B000AF78607B681B685B6903F4AD
:102420008063B3F5806F1BD17B681B686FF480629B
:102430005A617B6800221A637B68202283F83D2062
:102440007B68002283F83E207B681B6C43F004020B
:102450007B681A647B68002283F83C20012300E03B
:10246000002318460C37BD465DF8047B704700001A
:1024700080B586B000AF78607B68002B01D1012366
:1024800067E27B681B6803F00103002B75D0884B63
:102490009B6803F00C03042B0CD0854B9B6803F066
:1024A0000C03082B12D1824B5B6803F48003B3F555
:1024B000800F0BD17E4B1B6803F40033002B5BD0E5
:1024C0007B685B68002B57D1012342E27B685B6825
:1024D000B3F5803F06D1764B1B68754A43F48033D1
:1024E00013601DE07B685B68B3F5A02F0CD1704BC7
:1024F0001B686F4A43F4802313606D4B1B686C4A62
:1025000043F4803313600BE0694B1B68684A23F483
:1025100080331360664B1B68654A23F48023136085
:102520007B685B68002B13D0FEF70AFF386108E078
:10253000FEF706FF02463B69D31A642B01D9032339
:1025400007E25B4B1B6803F40033002BF0D014E070
:10255000FEF7F6FE386108E0FEF7F2FE02463B6940
:10256000D31A642B01D90323F3E1514B1B6803F405
:102570000033002BF0D100E000BF7B681B6803F044
:102580000203002B63D04A4B9B6803F00C03002B23
:102590000BD0474B9B6803F00C03082B1CD1444B1A
:1025A0005B6803F48003002B16D1414B1B6803F0DA
:1025B0000203002B05D07B68DB68012B01D00123CF
:1025C000C7E13B4B1B6823F0F8027B681B69DB000B
:1025D000374913430B603AE07B68DB68002B20D05F
:1025E000344B01221A60FEF7ABFE386108E0FEF7BB
:1025F000A7FE02463B69D31A022B01D90323A8E1A7
:102600002B4B1B6803F00203002BF0D0284B1B68F8
:1026100023F0F8027B681B69DB00254913430B603C
:1026200015E0244B00221A60FEF78AFE386108E0AC
:10263000FEF786FE02463B69D31A022B01D903231B
:1026400087E11B4B1B6803F00203002BF0D17B6872
:102650001B6803F00803002B36D07B685B69002BF6
:1026600016D0154B01221A60FEF76AFE386108E0A9
:10267000FEF766FE02463B69D31A022B01D90323FB
:1026800067E10B4B5B6F03F00203002BF0D01BE004
:10269000094B00221A60FEF753FE38610EE0FEF788
:1026A0004FFE02463B69D31A022B07D9032350E1A0
:1026B0000038024000004742800E4742884B5B6F63
:1026C00003F00203002BEAD17B681B6803F00403CC
:1026D000002B00F097800023FB75814B1B6C03F0EF
:1026E0008053002B0FD10023BB607D4B1B6C7C4AB9
:1026F00043F0805313647A4B1B6C03F08053BB6030
:10270000BB680123FB75774B1B6803F48073002BB8
:1027100018D1744B1B68734A43F480731360FEF73F
:102720000FFE386108E0FEF70BFE02463B69D31A44
:10273000022B01D903230CE16A4B1B6803F480735D
:10274000002BF0D07B689B68012B06D1644B1B6F7C
:10275000634A43F0010313671CE07B689B68052B09
:102760000CD15F4B1B6F5E4A43F0040313675C4B55
:102770001B6F5B4A43F0010313670BE0584B1B6F61
:10278000574A23F001031367554B1B6F544A23F03C
:10279000040313677B689B68002B15D0FEF7D0FD00
:1027A00038610AE0FEF7CCFD02463B69D31A41F2DC
:1027B0008832934201D90323CBE0494B1B6F03F0CE
:1027C0000203002BEED014E0FEF7BAFD38610AE0F8
:1027D000FEF7B6FD02463B69D31A41F288329342B6
:1027E00001D90323B5E03E4B1B6F03F00203002B1E
:1027F000EED1FB7D012B05D1394B1B6C384A23F000
:10280000805313647B689B69002B00F0A180344BDC
:102810009B6803F00C03082B5CD07B689B69022B40
:1028200041D1314B00221A60FEF78AFD386108E081
:10283000FEF786FD02463B69D31A022B01D903231A
:1028400087E0274B1B6803F00073002BF0D17B68F7
:10285000DA697B681B6A1A437B685B6A9B011A43CF
:102860007B689B6A5B08013B1B041A437B68DB6A3D
:102870001B061B4913434B601B4B01221A60FEF7DA
:102880005FFD386108E0FEF75BFD02463B69D31A45
:10289000022B01D903235CE0114B1B6803F000738A
:1028A000002BF0D054E0104B00221A60FEF748FDD8
:1028B000386108E0FEF744FD02463B69D31A022B5B
:1028C00001D9032345E0064B1B6803F00073002B7E
:1028D000F0D13DE07B689B69012B07D1012338E0F3
:1028E0000038024000700040600047421B4B5B68AC
:1028F000FB607B689B69012B28D0FB6803F4800296
:102900007B68DB699A4221D1FB6803F03F027B6858
:102910001B6A9A421AD1FA6847F6C07313407A6864
:10292000526A9201934211D1FB6803F440327B68F2
:102930009B6A5B08013B1B049A4207D1FB6803F0CA
:1029400070627B68DB6A1B069A4201D0012300E0BB
:10295000002318461837BD4680BD00BF003802402E
:1029600080B584B000AF786039607B68002B01D1FE
:102970000123CCE0684B1B6803F007033A689A42D6
:102980000CD9654B3A68D2B21A70634B1B6803F0DE
:1029900007033A689A4201D00123B8E07B681B68BC
:1029A00003F00203002B20D07B681B6803F00403B4
:1029B000002B05D0594B9B68584A43F4E053936071
:1029C0007B681B6803F00803002B05D0534B9B6802
:1029D000524A43F460439360504B9B6823F0F002EB
:1029E0007B689B684D4913438B607B681B6803F0D1
:1029F0000103002B44D07B685B68012B07D1474B58
:102A00001B6803F40033002B19D101237FE07B689E
:102A10005B68022B03D07B685B68032B07D13F4BBD
:102A20001B6803F00073002B09D101236FE03B4BBF
:102A30001B6803F00203002B01D1012367E0374B31
:102A40009B6823F003027B685B68344913438B6007
:102A5000FEF776FCF8600AE0FEF772FC0246FB68BF
:102A6000D31A41F28832934201D903234FE02B4B12
:102A70009B6803F00C027B685B689B009A42EBD179
:102A8000254B1B6803F007033A689A420CD2224B8D
:102A90003A68D2B21A70204B1B6803F007033A68F9
:102AA0009A4201D0012332E07B681B6803F00403E3
:102AB000002B08D0194B9B6823F4E0527B68DB683D
:102AC000164913438B607B681B6803F00803002BD7
:102AD00009D0124B9B6823F460427B681B69DB00C2
:102AE0000E4913438B6000F021F802460B4B9B68A4
:102AF0001B0903F00F030A49CB5C22FA03F3094ACE
:102B00001360094B1B681846FEF7D6FB00231846D6
:102B10001037BD4680BD00BF003C02400038024077
:102B2000DC43000800000020040000202DE9B04F25
:102B300094B000AF00237B640023FB6400233B645C
:102B40000023BB64794B9B6803F00C03082B0DD06A
:102B5000082B00F2E180002B02D0042B03D0DBE035
:102B6000734BBB64DBE0734BBB64D8E06F4B5B68BB
:102B700003F03F037B646D4B5B6803F48003002B21
:102B800063D06A4B5B689B090022BB63FA63BB6B33
:102B9000C3F308033B6300237B63D7E90C4522465C
:102BA0002B464FF000004FF00001590141EAD2617D
:102BB000500102460B462146511A3961294663EB02
:102BC00001037B614FF000024FF00003D7E904AB33
:102BD00059468B01514643EA916351468A01514659
:102BE000B2EB0108594663EB01094FF000024FF0C8
:102BF00000034FEAC90343EA58734FEAC8029046FC
:102C00009946234618EB0303BB602B4649EB0303AD
:102C1000FB604FF000024FF00003D7E90245294660
:102C20004B02214643EAD15321464A021046194637
:102C30007B6C0022BB62FA62D7E90A23FDF718FB1E
:102C400002460B461346FB6458E0384B5B689B0911
:102C5000002218461146C0F308033B6200237B6242
:102C6000D7E9088942464B464FF000004FF000017B
:102C7000590141EAD261500102460B464146B2EB8E
:102C8000010A494663EB010B4FF000024FF00003CD
:102C90004FEA8B1343EA9A634FEA8A12B2EB0A04B3
:102CA00063EB0B054FF000024FF00003EB0043EA2B
:102CB0005473E20014461D464346E3183B604B46FE
:102CC00045EB03037B604FF000024FF00003D7E9B0
:102CD000004529468B02214643EA915321468A0248
:102CE000104619467B6C0022BB61FA61D7E90623C6
:102CF000FDF7BEFA02460B461346FB640B4B5B68BE
:102D00001B0C03F0030301335B003B64FA6C3B6C68
:102D1000B2FBF3F3BB6402E0054BBB6400BFBB6CCA
:102D200018465037BD46BDE8B08F00BF003802409E
:102D30000024F40000127A0080B400AF034B1B683B
:102D40001846BD465DF8047B704700BF00000020B8
:102D500080B500AFFFF7F0FF0246054B9B689B0A6A
:102D600003F007030349CB5C22FA03F3184680BD46
:102D700000380240EC430008002310B50446C0E9C7
:102D80000033C0E90433836081814366C28183617B
:102D9000194608225C3000F037FA0D4B63620D4B88
:102DA000A3620D4BE3620D4B23630D4B24629C42E7
:102DB00006D003F16802944202D0D0339C4205D180
:102DC00004F15800BDE8104000F096BA10BD00BFF5
:102DD000593000087B300008B3300008D7300008B5
:102DE000E0000020024A0349034800F069B800BF30
:102DF0000C000020453E00081C00002041680C4BE0
:102E0000994210B5044601D001F01CF8A168094BA5
:102E1000994202D0204601F015F8E168064B99422C
:102E200004D02046BDE8104001F00CB810BD00BF32
:102E3000E000002048010020B001002010B50B4B3D
:102E40000B4C0C4A1A60204600220421FFF794FF25
:102E500004F1680001220921FFF78EFF04F1D00080
:102E60000222BDE810401221FFF786BF18020020A1
:102E7000E0000020E52D0008014800F03EBA00BF48
:102E800021020020014800F039BA00BF21020020D1
:102E900010B50446FFF7F0FF236A1BB1BDE81040F0
:102EA000FFF7F0BF044B2362044B1B68002BF5D1E6
:102EB000FFF7C4FFF2E700BFFD2D00081802002055
:102EC0002DE9F8430746884614460026D4E90195C3
:102ED000B9F1010905D52468002CF7D13046BDE8C9
:102EE000F883AB89012B07D9B5F90E30013303D034
:102EF00029463846C04706436835E9E70FB407B5A9
:102F0000064904AB086853F8042B8168019300F06C
:102F100071FC03B05DF804EB04B0704718000020AA
:102F2000024B01461868826801F016B818000020AC
:102F3000036A70B5846805460E460BB9FFF7A8FF13
:102F4000636EDB0705D4A389980502D4A06D00F059
:102F5000D4F9A389190702D52369002B35D121465D
:102F6000284600F0FBF880B34FF0FF35636EDA07B8
:102F700005D4A3899B0502D4A06D00F0BFF92846B3
:102F800070BD002B04DAA2699A4217DC0A2915D019
:102F900023685A1C22601970A36816F8011F013BB0
:102FA000A3600029EDD1002B11DA22460A21284620
:102FB00000F095F80130D7D00A25D7E722462846F9
:102FC00000F08DF80130E7D1CEE7013EE4E7236859
:102FD0005A1C22600A221A70EEE70000024B0146DA
:102FE0001868FFF7A5BF00BF180000200CB430B56B
:102FF000184B0C1E1D689DB008DA8B232B604FF018
:10300000FF301DB0BDE8304002B070474FF402738E
:10301000ADF814304FF000031B9314BF04F1FF33DD
:103020002346049307934FF6FF7302900690ADF882
:103030001630209A21AB02A92846019300F0B4FA79
:10304000431CBCBF8B232B60002CDAD0029B0022D8
:103050001A70D6E71800002010B50C46B1F90E1012
:1030600000F0FCF80028ABBF636DA3891B1823F4A4
:103070008053ACBF6365A38110BD2DE9F0411F46AD
:103080008B89DB0505460C46164605D5B1F90E10B1
:103090000223002200F0D0F8A389B4F90E1023F423
:1030A0008053A38132463B462846BDE8F04100F0FC
:1030B000E7B810B50C46B1F90E1000F0BDF8431C8E
:1030C000A38915BF606523F4805343F48053A38123
:1030D00018BFA38110BDB1F90E1000F09DB8F8B56E
:1030E0000E461446054618B1036A0BB9FFF7D0FE29
:1030F000A369A360A3891A0701D5236943B92146AF
:10310000284600F02BF818B14FF0FF373846F8BDCD
:1031100023682269981A6369F6B28342374605DC50
:103120002146284600F08EFE0028EDD1A368013B21
:10313000A36023685A1C22601E706269431C9A4275
:1031400004D0A389DB07E1D50A2EDFD1214628462A
:1031500000F078FE0028D9D0D6E7000038B5294B1A
:10316000054618680C4618B1036A0BB9FFF790FEC4
:10317000B4F90C30190722D4DA0607D409222A60E0
:1031800043F04003A3814FF0FF3033E0580712D5DE
:10319000616B41B104F14403994202D0284600F02A
:1031A000AFF800236363A38923F02403A3810023E2
:1031B000636023692360A38943F00803A381236923
:1031C0004BB9A38903F42073B3F5007F03D02146E4
:1031D000284600F085FEB4F90C3013F001020AD045
:1031E0000022A26062695242A261226942B913F0D0
:1031F0008000C5D138BD990758BF6269A260F4E765
:103200000020F7E71800002002440346934200D153
:10321000704703F8011BF9E738B5064D0023044653
:1032200008462B60FDF780FF431C02D12B6803B1D9
:10323000236038BD1C02002038B5074D04460846FF
:10324000114600222A601A46FDF795FF431C02D161
:103250002B6803B1236038BD1C02002038B5074D30
:1032600004460846114600222A601A46FDF73FFF31
:10327000431C02D12B6803B1236038BD1C0200201F
:1032800038B5074D04460846114600222A601A4602
:10329000FDF7BDFC431C02D12B6803B1236038BD90
:1032A0001C020020014B1868704700BF1800002066
:1032B00070B50D4D0D4C641BA4100026A64209D11B
:1032C0000B4D0C4C00F00CFF641BA4100026A64212
:1032D00005D170BD55F8043B98470136EEE755F827
:1032E000043B98470136F2E73044000830440008B8
:1032F00030440008344400087047704770470000AD
:1033000038B50546002941D051F8043C0C1F002B6C
:10331000B8BFE41800F0E0F81D4A136833B96360E1
:1033200014602846BDE8384000F0DCB8A34208D954
:10333000206821188B4201BF19685B680918216059
:10334000EDE71A465B680BB1A342FAD91168501831
:10335000A0420BD120680144501883421160E0D193
:1033600018685B68536008441060DAE702D90C23E0
:103370002B60D6E7206821188B4204BF19685B6870
:10338000636004BF091821605460CAE738BD00BFFC
:103390002802002070B50F4E0C463168054611B961
:1033A00000F04AFE30602146284600F045FE431CEE
:1033B00003D14FF0FF34204670BDC41C24F0030439
:1033C000A042F8D0211A284600F036FE0130F2D192
:1033D000EFE700BF240200202DE9F843CD1C25F0C3
:1033E000030508350C2D38BF0C25002D064601DBE2
:1033F000A94204D90C2333600020BDE8F883DFF82C
:10340000D48000F069F8D8F800301C4644BB294647
:103410003046FFF7BFFF431C044658D1D8F80040A0
:103420002746002F43D1002C4BD023683946304625
:1034300004EB030900F000FE814542D121686D1ABA
:1034400029463046FFF7A6FF01303AD023682B44C7
:103450002360D8F800305A6862BBC8F800700FE0EB
:103460002268521B20D40B2A17D96119A342256068
:1034700018BF5960636808BFC8F8001062514B60FC
:10348000304600F02FF804F10B00231D20F0070058
:10349000C21A1CBF1B1AA350AFE76268A3420CBF3D
:1034A000C8F800205A60EBE723466468AEE73C4664
:1034B0007F68B6E71A465B68A342FBD100235360DE
:1034C000DEE70C233360304600F00CF894E705602B
:1034D000D6E700BF280200200148FFF70EBF00BF5B
:1034E000200200200148FFF709BF00BF2002002092
:1034F0002DE9F0478E681F46BE420B6882460C4697
:1035000090462DD8B1F90C2012F4906F26D0656941
:10351000096905EB4505A3EB010905EBD5757B1C96
:103520004B446D109D4238BF1D46530527D5294693
:10353000FFF752FF064660B321694A4600F08CFD52
:10354000A38923F4906343F08003A381266165611E
:103550004E44A5EB09052660A5603E46BE4200D953
:103560003E4620683246414600F02AFDA3689B1B78
:10357000A3602368334423600020BDE8F0872A4617
:1035800000F078FD06460028E0D121695046FFF79B
:10359000B7FE0C23CAF80030A38943F04003A3818F
:1035A0004FF0FF30E9E700002DE9F04F98468B8996
:1035B0001B069DB007460D46144610D50B6973B91E
:1035C0004021FFF709FF2860286130B90C233B60D8
:1035D0004FF0FF301DB0BDE8F08F40236B6100233A
:1035E000099320238DF82930CDF80C803023DFF8A3
:1035F0009C818DF82A304FF0010923469A4613F832
:10360000012B0AB1252AF9D1BAEB040B0BD05B468A
:10361000224629463846FFF76BFF013000F0A780AD
:10362000099A5A4409929AF80030002B00F09F80C2
:1036300000234FF0FF32CDE905230AF1010A04937C
:1036400007938DF853301A935446052214F8011B42
:103650004E48FCF7BDFD049AD8B9D00644BF2023DC
:103660008DF85330110744BF2B238DF853309AF84F
:1036700000302A2B15D0079A544600204FF00A0C30
:10368000214611F8013B303B092B4BD9B0B10792D1
:1036900014E0A0EB080309FA03F313430493A246D2
:1036A000D2E7039B191D1B680391002BBBBF5B4234
:1036B00042F0020207930793B8BF049223782E2B9F
:1036C0000AD163782A2B32D1039B1A1D1B680392FF
:1036D00043EAE37302340593DFF8C0A021780322A4
:1036E0005046FCF775FD38B1049BA0EB0A00402260
:1036F000824013430134049314F8011B24488DF8CD
:1037000028100622FCF764FD002836D0214B1BBB95
:10371000039B073323F0070308330393099B3344C8
:1037200009936AE70CFB02320C460120A8E700234C
:103730000134059319464FF00A0C204610F8012B6E
:10374000303A092A03D9002BC6D00591C4E70CFBF7
:10375000012104460123F0E703AB00932A460E4BF8
:1037600004A93846AFF30080421C0646D6D1AB8987
:103770005B063FF52DAF09982CE703AB00932A4673
:10378000054B04A9384600F0BBF9EDE7F443000807
:10379000FE43000800000000F1340008FA4300086E
:1037A0009368013B002B10B4936008DA9469A3423C
:1037B00001DB0A2903D15DF8044BFFF790BC1368C5
:1037C000581C1060197008465DF8044B7047F8B536
:1037D00006460F461446D518AC4201D1002007E03A
:1037E00014F8011B3A463046FFF7DAFF431CF3D1C9
:1037F000F8BD00002DE9F04F0D469DB014469846E7
:10380000064618B1036A0BB9FFF742FB6B6ED90786
:1038100005D4AB899A0502D4A86DFFF76EFDAB897C
:103820001B0701D52B699BB929463046FFF796FC4B
:1038300070B16B6EDC0704D54FF0FF301DB0BDE8F2
:10384000F08FAB899805F7D4A86DFFF757FDF3E724
:103850000023099320238DF82930CDF80C803023E4
:10386000DFF8AC818DF82A304FF0010923469A46E3
:1038700013F8012B0AB1252AF9D1BAEB040B0BD0AE
:103880005B46224629463046FFF7A1FF013000F093
:10389000A780099A5A4409929AF80030002B00F048
:1038A0009F8000234FF0FF32CDE905230AF1010A82
:1038B000049307938DF853301A935446052214F855
:1038C000011B5348FCF784FC049AD8B9D10644BFC5
:1038D00020238DF85330130744BF2B238DF853302A
:1038E0009AF800302A2B15D0079A544600204FF042
:1038F0000A0C214611F8013B303B092B4BD9B0B1E2
:10390000079214E0A0EB080309FA03F313430493AE
:10391000A246D2E7039B191D1B680391002BBBBF76
:103920005B4242F0020207930793B8BF04922378E8
:103930002E2B0AD163782A2B32D1039B1A1D1B68C8
:10394000039243EAE37302340593DFF8D4A02178AD
:1039500003225046FCF73CFC38B1049BA0EB0A0064
:103960004022824013430134049314F8011B294878
:103970008DF828100622FCF72BFC00283FD0264BA0
:103980001BBB039B073323F0070308330393099BF7
:103990003B4409936AE70CFB02320C460120A8E77E
:1039A00000230134059319464FF00A0C204610F805
:1039B000012B303A092A03D9002BC6D00591C4E760
:1039C0000CFB012104460123F0E703AB00932A46D8
:1039D000124B04A93046AFF300800746781CD6D1BD
:1039E0006B6ED90705D4AB899A0502D4A86DFFF791
:1039F00085FCAB895B063FF51FAF09981EE703AB5B
:103A000000932A46054B04A9304600F079F8E4E714
:103A1000F4430008FE43000800000000CF37000810
:103A2000FA4300082DE9F047164698468A680B6964
:103A3000DDF820909342B8BF1346336091F84320DD
:103A400007460C460AB1013333602368990642BF2A
:103A5000336802333360256815F0060506D104F19A
:103A6000190AE36832689B1AAB4226DC94F84330AB
:103A70002268003B18BF012392062BD404F14302B5
:103A800041463846C84701301ED02368226903F0FA
:103A90000603042B02BFE5683368ED1AA3680CBF68
:103AA00025EAE57500259342C4BF9B1AED18002650
:103AB0001A34B5421AD1002008E00123524641468B
:103AC0003846C847013003D14FF0FF30BDE8F087DA
:103AD0000135C6E7E1185A1C302081F84300224422
:103AE00094F8451082F843100233C7E701232246B9
:103AF00041463846C8470130E6D00136D9E70000D4
:103B00002DE9FF470F7E0C9E782F914680460C468C
:103B10009A4601F1430207D8622F0AD8002F00F01D
:103B2000D180582F00F0B88004F1420684F842702A
:103B30003AE0A7F16303152BF6D801A151F823F061
:103B4000993B0008AD3B0008293B0008293B0008D1
:103B5000293B0008293B0008AD3B0008293B000831
:103B6000293B0008293B0008293B0008AB3C000822
:103B7000D73B0008653C0008293B0008293B0008AA
:103B8000CD3C0008293B0008D73B0008293B000832
:103B9000293B00086D3C000833681A1D1B68326021
:103BA00004F1420684F8423001239CE03368206827
:103BB000191D3160060601D51D6803E04506FBD5D9
:103BC000B3F90050002D03DA2D236D4284F8433001
:103BD00058480A2311E021683368080653F8045B4B
:103BE00002D4490648BFADB26F2F5248336014BFAC
:103BF0000A230823002184F843106668A660002E7B
:103C000005DB21682E4321F0040121604BD01646CC
:103C1000B5FBF3F103FB1157C75D06F8017D2F4695
:103C2000BB420D46F4D9082B0BD12368DF0708D51A
:103C3000236961689942DEBF302306F8013C06F132
:103C4000FF36921B2261CDF800A04B4603AA214605
:103C50004046FFF7E7FE01304AD14FF0FF3004B095
:103C6000BDE8F087236843F02003236032487827BB
:103C700084F84570236831681F0651F8045B02D44C
:103C80005F0648BFADB23160D90744BF43F020039F
:103C900023601DB11023ADE72648E9E7236823F030
:103CA00020032360F6E71646BDE73368256861699F
:103CB000181D30602E061B6801D5196002E06806E9
:103CC000FBD51980002323611646BCE733681A1D13
:103CD00032601E68626800213046FCF779FA08B14C
:103CE000801B606063682361002384F84330AAE787
:103CF0002369324649464046D0470130ADD023685B
:103D00009B0713D4E068039B9842B8BF1846A6E708
:103D10000123324649464046D04701309DD0013507
:103D2000E36803995B1AAB42F2DCEBE7002504F190
:103D30001906F5E70544000816440008B1F90C20FF
:103D40002DE9F041160705460C4654D44B68002B6C
:103D500002DC0B6C002B48DDE66A002E45D0002308
:103D600012F480522F68216A2B6030D0626DA389D3
:103D7000590705D56368D21A636B0BB1236CD21A4D
:103D80000023E66A216A2846B047431CA38906D16E
:103D900029681D292BD82A4ACA40D60727D50022D0
:103DA0006260D9042269226004D5421C01D12B68CB
:103DB00003B96065616B2F60B9B104F144039942A6
:103DC00002D02846FFF79CFA002363630DE001232D
:103DD0002846B0470246501CC9D12B68002BC6D0DC
:103DE0001D2B01D0162B1ED12F60002022E043F0A6
:103DF00040031BB21BE00F69002FF6D093070E683B
:103E000008BF4B690F6018BF0023A6EB07088B6043
:103E1000B8F1000FE9DD216AA66A43463A46284612
:103E2000B047002808DCB4F90C3043F04003A3810C
:103E30004FF0FF30BDE8F0810744A8EB0008E7E74A
:103E40000100402038B50B6905460C4613B9002522
:103E5000284638BD18B1036A0BB9FFF719F8B4F951
:103E60000C30002BF3D0626ED00704D4990502D435
:103E7000A06DFFF742FA28462146FFF75FFF636E09
:103E8000DA070546E4D4A3899B05E1D4A06DFFF7CA
:103E900035FADDE770B50C46B1F90E10002996B081
:103EA00015461E460DDAA38913F0800F4FF000016E
:103EB00014BF40234FF48063002031602B6016B0A4
:103EC00070BD6A4600F096F80028ECDB019901F419
:103ED0007041A1F50053594259414FF48063EBE71B
:103EE0008B89F7B59D0706460C4607D504F14703B5
:103EF000236023610123636103B0F0BD01AB6A4617
:103F0000FFF7C8FF009F054639463046FFF764FAC1
:103F100048B9B4F90C309A05EED423F0030343F00A
:103F20000203A381E2E7A389206043F08003A38119
:103F3000019BC4E904075BB1B4F90E10304600F0F0
:103F40006BF828B1A38923F0030343F00103A38195
:103F5000A3891D43A581CFE770B50D4614460646DB
:103F600018B1036A0BB9FEF793FF636ED80705D447
:103F7000A389990502D4A06DFFF7BFF9A368013B9F
:103F8000002BA36005DAA269934212DBEBB20A2B85
:103F90000FD023685A1C22601D70EDB2636EDA07E1
:103FA00005D4A3899B0502D4A06DFFF7A7F9284685
:103FB00070BD294622463046FFF791F80546EDE7E9
:103FC000884210B501EB020402D98442234607D887
:103FD000431EA14208D011F8012B03F8012FF8E786
:103FE000024401468A4200D110BD13F8014D02F887
:103FF000014DF7E738B5074D002304460846114642
:104000002B60FDF79DF8431C02D12B6803B12360A0
:1040100038BD00BF1C02002038B5064D0023044601
:1040200008462B60FDF79CF8431C02D12B6803B1B6
:10403000236038BD1C02002038B5064D002304461D
:1040400008462B60FDF7A4F8431C02D12B6803B18E
:10405000236038BD1C0200200A44914200F1FF3366
:1040600000D1704710B511F8014B03F8014F914290
:10407000F9D110BD2DE9F041074614460D4621B98E
:10408000BDE8F0411146FFF7A7B92AB9FFF738F9A3
:1040900025462846BDE8F08100F01AF8844206461D
:1040A00002D8B4EB500FF4D821463846FFF794F904
:1040B000804608B94546ECE7B4422246294628BF67
:1040C0003246FFF7C9FF29463846FFF719F9F1E7ED
:1040D00051F8043C181F002BBCBF0B58C018704788
:1040E000F8B500BFF8BC08BC9E467047F8B500BFE5
:0840F000F8BC08BC9E467047B5
:1040F8003078253032583D256420203078253032FC
:10410800583D256420206572723D30782530386C22
:10411800580D0A002575202575203A20257520257B
:1041280075203A2025752025750000005354373531
:104138003339206E6F7420666F756E640D00000051
:10414800464F554E443A20434D4438573D30782524
:10415800303258204441544138573D307825303268
:1041680058205341313D2564205341303D25640D8D
:104178000A0000005363616E6E696E67204932431E
:10418800206275733A0D0000307825580000000051
:104198000D0000005363616E6E696E6720493243FB
:1041A800206275733A0D0A003078253032582000A5
:1041B8000D0A00003010FCFC030303030303030390
:1041C80003030303FCFC3F3FC0C0C0C0C0C0C0C065
:1041D800C0C0C0C03F3F3110000000000000000018
:1041E800000000000303FFFF0000000000000000C3
:1041F800000000000000FFFF321003038383838365
:104208008383838383838383FFFFFFFFC1C1C1C18E
:10421800C1C1C1C1C1C1C1C1C0C0331003038383BF
:1042280083838383838383838383FFFFC0C0C1C168
:10423800C1C1C1C1C1C1C1C1C1C1FFFF3410FFFFAC
:10424800808080808080808080808080FFFF000068
:10425800010101010101010101010101FFFF351007
:10426800FFFF83838383838383838383838303031E
:10427800C0C0C1C1C1C1C1C1C1C1C1C1C1C1FFFFAC
:104288003610FFFF838383838383838383838383BE
:104298000303FFFFC1C1C1C1C1C1C1C1C1C1C1C106
:1042A800FFFF37100303030303030303030303039D
:1042B8000303FFFF000000000000000000000000F2
:1042C8000000FFFF3810FFFF83838383838383838A
:1042D80083838383FFFFFFFFC1C1C1C1C1C1C1C1C6
:1042E800C1C1C1C1FFFF3910FFFF8383838383836B
:1042F800838383838383FFFFC0C0C1C1C1C1C1C1A0
:10430800C1C1C1C1C1C1FFFF4810FFFFC0C0C0C0CB
:10431800C0C0C0C0C0C0C0C0FFFFFFFF030303038D
:104328000303030303030303FFFF4510FFFFC3C396
:10433800C3C3C3C3C3C3C3C3C3C3C3C3FFFFC3C3CD
:10434800C3C3C3C3C3C3C3C3C3C3C3C34C10FFFFE7
:104358000000000000000000000000000000FFFF57
:10436800C0C0C0C0C0C0C0C0C0C0C0C0C0C04F1066
:10437800FFFF030303030303030303030303FFFF15
:10438800FFFFC0C0C0C0C0C0C0C0C0C0C0C0FFFF29
:1043980020040000000000000000000000000000F1
:1043A8000000000000000000000000000000000005
:1043B80000003A0218180000000000000000000089
:1043C80000000000181800000000000000000000B5
:1043D80000000000000000000000000001020304CB
:1043E800060708090000000001020304232D302BF2
:1043F8002000686C4C0065666745464700303132DE
:104408003334353637383941424344454600303134
:104418003233343536373839616263646566000093
:08442800A8BDFF7F01000000A8
:04443000B5010008CA
:0444340091010008EA
:104438000024F4001000000001000000000000004B
:1044480003000000E00000201C0000200000000025
:10445800E000002048010020B0010020000000001A
:104468000000000000000000000000000000000044
:104478000000000000000000000000000000000034
:104488000000000000000000000000000000000024
:0844980000000000000000001C
:0400000508001221BC
:00000001FF
